{
  "contractName": "test",
  "abi": [
    {
      "anonymous": false,
      "inputs": [
        {
          "indexed": false,
          "internalType": "uint256",
          "name": "number",
          "type": "uint256"
        }
      ],
      "name": "change",
      "type": "event"
    },
    {
      "inputs": [],
      "name": "num",
      "outputs": [
        {
          "internalType": "uint256",
          "name": "",
          "type": "uint256"
        }
      ],
      "stateMutability": "view",
      "type": "function"
    },
    {
      "inputs": [
        {
          "internalType": "uint256",
          "name": "_num",
          "type": "uint256"
        }
      ],
      "name": "set",
      "outputs": [],
      "stateMutability": "nonpayable",
      "type": "function"
    }
  ],
  "bytecode": "0x608060405234801561001057600080fd5b5061017d806100206000396000f3fe608060405234801561001057600080fd5b50600436106100365760003560e01c80634e70b1dc1461003b57806360fe47b114610059575b600080fd5b610043610075565b604051610050919061010b565b60405180910390f35b610073600480360381019061006e91906100d3565b61007b565b005b60005481565b806000819055507f75322e479c04177807163db33d483d06d7628d90ec4e0f91baf0df5036ccfdd76000546040516100b3919061010b565b60405180910390a150565b6000813590506100cd81610130565b92915050565b6000602082840312156100e557600080fd5b60006100f3848285016100be565b91505092915050565b61010581610126565b82525050565b600060208201905061012060008301846100fc565b92915050565b6000819050919050565b61013981610126565b811461014457600080fd5b5056fea26469706673582212209cd802b0781e3d62ce1670f9e0b6861405a4572170178a194e93046a44ae923964736f6c63430008010033",
  "immutableReferences": {},
  "source": "// SPDX-License-Identifier: GPLv3\n\npragma solidity ^0.8.1;\npragma abicoder v2;\npragma experimental SMTChecker;\n\ncontract test {\n  uint public num;\n\n  // inform participants about current state\n  event change(uint number);\n\n  function set(uint _num) external {\n    num = _num;\n    emit change(num);\n  }\n}\n",
  "sourcePath": "C:/Users/theod/OneDrive - University of Bristol/Uni/4 Forth Year/Project/0_publishable/Ganache to Infura/contracts/test.sol",
  "compiler": {
    "name": "solc",
    "version": "0.8.1+commit.df193b15.Emscripten.clang"
  },
  "schemaVersion": "3.3.3",
  "updatedAt": "2021-04-03T20:38:07.008Z",
  "devdoc": {
    "kind": "dev",
    "methods": {},
    "version": 1
  },
  "userdoc": {
    "kind": "user",
    "methods": {},
    "version": 1
  }
}